:020000040800F2
:1000000060060020B1010008F90300088F03000812
:10001000F503000863020008ED0500080000000079
:10002000000000000000000000000000C5040008FF
:10003000670200080000000081040008C7040008EF
:10004000C7010008C7010008C7010008C701000870
:10005000C7010008C7010008C7010008C701000860
:10006000C7010008C7010008C7010008C701000850
:10007000C7010008C7010008C7010008C701000840
:10008000C7010008C7010008C7010008C701000830
:10009000C7010008C7010008C7010008C701000820
:1000A000C7010008C7010008C7010008C701000810
:1000B000C9040008C7010008C7010008C7010008FB
:1000C000C7010008C7010008C7010008C7010008F0
:1000D000C7010008C7010008C7010008C7010008E0
:1000E000C7010008C7010008C7010008C7010008D0
:1000F000C7010008C7010008C7010008C7010008C0
:10010000C7010008C7010008C7010008C7010008AF
:10011000C7010008C7010008C7010008C70100089F
:10012000C7010008C7010008C7010008C70100088F
:1001300000F002F800F02CF80AA090E8000C8244CD
:100140008344AAF10107DA4501D100F021F8AFF2AA
:10015000090EBAE80F0013F0010F18BFFB1A43F0A5
:100160000103184724050000340500000023002483
:1001700000250026103A28BF78C1FBD8520728BFB7
:1001800030C148BF0B6070471FB51FBD10B510BD13
:1001900000F02DF81146FFF7F7FF00F029FA00F004
:1001A0004BF803B4FFF7F2FF03BC00F053F8000074
:1001B00008480047FEE7FEE7FEE7FEE7FEE7FEE74A
:1001C000FEE7FEE7FEE7FEE703480449044A054B65
:1001D0007047000031010008600000206006002028
:1001E000600200206002002070477047704775462B
:1001F00000F02CF8AE4605006946534620F0070093
:10020000854618B020B5FFF7DFFFBDE820404FF06E
:1002100000064FF000074FF000084FF0000B21F0F0
:100220000701AC46ACE8C009ACE8C009ACE8C009BD
:10023000ACE8C0098D46704710B50446AFF30080A6
:100240002046BDE81040FFF7ACBF000000487047F3
:100250000000002001491820ABBEFEE72600020086
:10026000704700BFFEE77047002100E0491C814253
:10027000FCD370472DE9F0410246002500260020FE
:1002800000230024002791F803C00CF00F0591F81B
:1002900003C00CF0100CBCF1000F03D091F802C0A9
:1002A0004CEA050591F800C0BCF1000F31D014688C
:1002B00000202BE04FF0010C0CFA00F3B1F800C065
:1002C0000CEA03069E4220D183004FF00F0C0CFA7B
:1002D00003F7BC4305FA03FC4CEA040491F803C09D
:1002E000BCF1280F06D14FF0010C0CFA00FCC2F84B
:1002F00014C00AE091F803C0BCF1480F05D14FF0DB
:10030000010C0CFA00FCC2F810C0401C0828D1D324
:100310001460B1F800C0BCF1FF0F34DD5468002058
:100320002EE000F1080C4FF0010808FA0CF3B1F8C8
:1003300000C00CEA03069E4221D183004FF00F0C4F
:100340000CFA03F7BC4305FA03FC4CEA040491F8E9
:1003500003C0BCF1280F05D100F1080C08FA0CF815
:10036000C2F8148091F803C0BCF1480F07D100F126
:10037000080C4FF0010808FA0CF8C2F81080401C75
:100380000828CED35460BDE8F0810161704700BFFA
:10039000FEE7000008B50121082000F083F82020C6
:1003A000ADF8000010208DF8030003208DF8020046
:1003B00069460E48FFF75EFF0121402000F072F809
:1003C0002020ADF8000010208DF8030003208DF8E8
:1003D000020069460648FFF74DFF20210348FFF75A
:1003E000D4FF20210248FFF7D0FF08BD000C0140D8
:1003F0000018014000BFFEE77047000070B5002103
:1004000000230F22C47804B3154C246804F4E0647C
:10041000C4F5E064210AC1F10403CA40447804FA37
:1004200003F184781440214309010E4C0678A1554C
:10043000047804F01F050124AC4005786D11AD006F
:1004400005F1E025C5F8004109E0047804F01F0536
:100450000124AC40044D0678761145F8264070BD65
:100460000CED00E000E400E080E100E0024901431F
:10047000024A1160704700000000FA050CED00E030
:100480007047000029B1064AD2690243044BDA6181
:1004900004E0034AD2698243014BDA6170470000ED
:1004A0000010024029B1064A92690243044B9A6146
:1004B00004E0034A92698243014B9A61704700004D
:1004C000001002407047704710B50121880700F006
:1004D00020F858B10121880700F00CF804480068A2
:1004E00008B9012000E000200149086010BD0000AB
:1004F00094812142CA430282704721B1028842F0AE
:100500000102028004E002884FF6FE731A40028066
:10051000704730B50246002000230024158A05EA02
:100520000103958905EA010413B10CB1012000E033
:10053000002030BD1AB183890B43838102E0838997
:100540008B43838170470000002202881D4B984234
:100550000ED01D4B98420BD0B0F1804F08D01B4BF2
:10056000984205D01A4B984202D01A4B984204D1B7
:100570004FF68F731A404B881A43174B984207D097
:10058000164B984204D04FF6FF431A40CB881A43CB
:1005900002808B8883850B8803850A4B98420BD099
:1005A000094B984208D00E4B984205D00D4B98420B
:1005B00002D00D4B984201D10B7A0386012383822E
:1005C00070470000002C014000340140000400404E
:1005D00000080040000C00400010004000140040E3
:1005E00000400140004401400048014000BFFEE7D8
:1005F000FFF7D0FE4FF4A060FFF738FF41F61F4130
:1006000041F2873000F010F80BE00648006808B9A6
:10061000012000E000200349086041F28830FFF724
:1006200023FEF2E7940123427FB504460D460121E3
:100630000846FFF727FFA8B2ADF804000020ADF888
:100640000600ADF80A00A0B2ADF8080001A94FF00D
:100650008040FFF779FF012211469007FFF76AFFFC
:100660001C208DF8000000208DF8010001208DF87D
:1006700002008DF803006846FFF7C0FE01218807DD
:10068000FFF73BFF7FBD0000980600080000002038
:08069000600600006C01000887
:0400000508000131BD
:00000001FF
